{
  "_format": "hh-sol-artifact-1",
  "contractName": "Payload",
  "sourceName": "contracts/Payload.sol",
  "abi": [
    {
      "inputs": [
        {
          "internalType": "address payable",
          "name": "to",
          "type": "address"
        }
      ],
      "name": "transferFunds",
      "outputs": [],
      "stateMutability": "nonpayable",
      "type": "function"
    }
  ],
  "bytecode": "0x608060405234801561001057600080fd5b5061015c806100206000396000f3fe608060405234801561001057600080fd5b506004361061002b5760003560e01c8063e39ff19f14610030575b600080fd5b61004a600480360381019061004591906100f9565b61004c565b005b8073ffffffffffffffffffffffffffffffffffffffff166108fc479081150290604051600060405180830381858888f19350505050158015610092573d6000803e3d6000fd5b5050565b600080fd5b600073ffffffffffffffffffffffffffffffffffffffff82169050919050565b60006100c68261009b565b9050919050565b6100d6816100bb565b81146100e157600080fd5b50565b6000813590506100f3816100cd565b92915050565b60006020828403121561010f5761010e610096565b5b600061011d848285016100e4565b9150509291505056fea26469706673582212203e38e6e41e29ae109aa94027ef497e6d1ba68f73a0a9ccb2ecf4f15cd319396664736f6c63430008080033",
  "linkReferences": {},
  "deployedLinkReferences": {}
}