{
  "_format": "hh-sol-artifact-1",
  "contractName": "Test",
  "sourceName": "contracts/Test.sol",
  "abi": [
    {
      "inputs": [
        {
          "internalType": "address",
          "name": "_address",
          "type": "address"
        },
        {
          "internalType": "bytes",
          "name": "_payload",
          "type": "bytes"
        }
      ],
      "name": "transferFunds",
      "outputs": [],
      "stateMutability": "nonpayable",
      "type": "function"
    }
  ],
  "bytecode": "0x608060405234801561001057600080fd5b50610337806100206000396000f3fe608060405234801561001057600080fd5b506004361061002b5760003560e01c8063474ed22514610030575b600080fd5b61004a600480360381019061004591906101cc565b61004c565b005b60008373ffffffffffffffffffffffffffffffffffffffff16838360405161007592919061026b565b600060405180830381855af49150503d80600081146100b0576040519150601f19603f3d011682016040523d82523d6000602084013e6100b5565b606091505b50509050806100f9576040517f08c379a00000000000000000000000000000000000000000000000000000000081526004016100f0906102e1565b60405180910390fd5b50505050565b600080fd5b600080fd5b600073ffffffffffffffffffffffffffffffffffffffff82169050919050565b600061013482610109565b9050919050565b61014481610129565b811461014f57600080fd5b50565b6000813590506101618161013b565b92915050565b600080fd5b600080fd5b600080fd5b60008083601f84011261018c5761018b610167565b5b8235905067ffffffffffffffff8111156101a9576101a861016c565b5b6020830191508360018202830111156101c5576101c4610171565b5b9250929050565b6000806000604084860312156101e5576101e46100ff565b5b60006101f386828701610152565b935050602084013567ffffffffffffffff81111561021457610213610104565b5b61022086828701610176565b92509250509250925092565b600081905092915050565b82818337600083830152505050565b6000610252838561022c565b935061025f838584610237565b82840190509392505050565b6000610278828486610246565b91508190509392505050565b600082825260208201905092915050565b7f466f727761726465642063616c6c206661696c65642e00000000000000000000600082015250565b60006102cb601683610284565b91506102d682610295565b602082019050919050565b600060208201905081810360008301526102fa816102be565b905091905056fea2646970667358221220717c08d981496317d5c49c9aa08af08c0b6c2f731264d0d85218e64fd5db21ff64736f6c63430008080033",
  "linkReferences": {},
  "deployedLinkReferences": {}
}